:030000000204787F
:0C047800787FE4F6D8FD7581230202CBEA
:0604BE0068656C6C6F0024
:1002CB001204557BFF7A0479BE7D017F0112038CEA
:1002DB007D427F011203AF7F057E001204407F0138
:1002EB001203338F22EFFB7A00750C047D017F0222
:0502FB0012040D80FE5D
:06046900C2A58F80D2A79E
:08046F007F027EEFDEFEDFFCE0
:010477002262
:0A049000C2A6120469C2A702046F9D
:1003D100CFCDCFCECCCE1201CB7C007D0A1201CB8A
:0403E100ED2430FFD8
:0A03E500D2A6120469C2A702046F39
:10042A00AE07BE0104ED148006BE0209ED243F4466
:06043A0080FF1204902275
:100455007F381204907F0C1204907F061204907F5F
:0404650001020490FC
:0A049A00AC0312042AAF040203E5CC
:06038C008B088A09890AB2
:1003920012042AE4FDAB08AA09A90A8D827583001A
:0C03A20012018CFF60061203E50D80E9DB
:0103AE00222C
:0C0300007F0AEA24FFFDE434FFFC7E00CD
:08030C008E0D8F0E8C0F8D1079
:100314007F017E00E4FBEBC39510E50F6480F87465
:0E0324008098500AAC0DAD0E1201B90B80E8A6
:0103320022A8
:04040D008A0A8B0BC1
:1004110012042AAA0CEAD39400400D120300AC0A7C
:08042100AD0B1203D11A80EDAE
:0104290022B0
:1002200012042AC3EA64809480400B7F2B1203E5FA
:100230008A168B17800E7F2D1203E5C3E49BF517FA
:10024000E49AF516AA15EAD39400400D120300AC07
:0902500016AD171203D11A80ED5E
:010259002282
:04025A008A1A8B1B56
:10025E0012042AAA1CEAD3940040297F101203022A
:10026E00AC1AAD1BCFCDCFCECCCE1201CBEF540FEF
:10027E00FEC3940AEE5004243080022437FF12038A
:04028E00E51A80D11C
:010292002249
:040293008A1F8B2013
:1002970012042AAA21EAD394004028EA24FFFDE4A5
:1002A70034FFFC7F027E0012030CAC1FAD20CFCDC4
:1002B700CFCECCCE1201CBEF54012430FF1203E591
:0302C7001A80D2C8
:0102CA002211
:10044000EF1FAC0670011E4C600A7D027CEFDCFEE3
:04045000DDFC80EC63
:010454002285
:10000300E4F5237590FFC2932097137F14FE120427
:10001300403097FD7F147E00120440752301209623
:10002300147F147E001204403096FD7F147E00126C
:1000330004407523052095147F147E00120440307C
:1000430095FD7F147E001204407523092094147FCC
:10005300147E001204403094FD7F147E001204408D
:1000630075230D7590FFC2922097147F147E0012A2
:1000730004403097FD7F147E001204407523022054
:1000830096147F147E001204403096FD7F147E0088
:100093001204407523062095147F147E0012044039
:1000A3003095FD7F147E0012044075230A209414BA
:1000B3007F147E001204403094FD7F147E001204EE
:1000C3004075230E7590FFC2912097147F147E0014
:1000D3001204403097FD7F147E0012044075230301
:1000E3002096147F147E001204403096FD7F147E08
:1000F300001204407523072095147F147E00120418
:10010300403095FD7F147E0012044075230B20942C
:10011300147F147E001204403094FD7F147E00127D
:10012300044075230F7590FFC2902097147F147EAF
:10013300001204403097FD7F147E001204407523A3
:10014300042096147F147E001204403096FD7F1421
:100153007E001204407523082095147F147E00123C
:1001630004403095FD7F147E0012044075230C205B
:1001730094147F147E001204403094FD7F147E009B
:08018300120440752310AF23A4
:01018B002251
:0904AE00D2A0D2A1C2A0C2A12279
:0704B700C2A0D2A1D2A022D5
:02036300AD07E4
:10036500E4FB74807E00A803088006CEA2E713CEC6
:1003750013D8F8FFEDF582EF558224FF92A0D2A1A4
:06038500C2A10BBB08DC65
:01038B00224F
:1003EF00E4FFD2A0FED2A130A00D7480A806088031
:0D03FF0002C313D8FC4207C2A10EBE08E8DD
:01040C0022CD
:0A04A400EF24FF92A0D2A1C2A12212
:0B048400D2A0D2A1A2A0E433FFC2A1CD
:01048F00224A
:1003AF008F088D091204AE7FA0120363120484AF6D
:1003BF0008120363120484AF091203631204840248
:0203CF0004B771
:020333008F0831
:100335001204AE7FA0120363120484AF0812036394
:100345001204841204AE7FA1120363120484120303
:0D035500EF8F097F011204A41204B7AF0955
:010362002278
:10018C00BB010CE58229F582E5833AF583E0225028
:10019C0006E92582F8E622BBFE06E92582F8E22272
:0D01AC00E58229F582E5833AF583E493228C
:1001B900EF8DF0A4A8F0CF8CF0A428CE8DF0A42E5A
:0201C900FE2214
:1001CB00BC000BBE0029EF8DF084FFADF022E4CC18
:1001DB00F875F008EF2FFFEE33FEEC33FCEE9DECE1
:1001EB00984005FCEE9DFE0FD5F0E9E4CEFD22ED27
:1001FB00F8F5F0EE8420D21CFEADF075F008EF2F71
:10020B00FFED33FD4007985006D5F0F222C398FD61
:05021B000FD5F0EA22FE
:00000001FF
