:0300000002038078
:0C038000787FE4F6D8FD75814A0203C7BF
:100197001206D41207898F23E5236064B40107E4AC
:1001A700F524F525F526E523B4020CE52770047F31
:1001B7000180027F008F27E52364037029AD25FFA7
:1001C7001206287F057E00120717AD247F0112064D
:1001D700287F057E00120717AD267F021206287FAB
:1001E700057E00120717E523B40415E4FF120589FD
:1001F7008F257F011205898F247F021205898F269B
:10020700E52575F00A84FD7F01120782E52575F063
:100217000A84ADF07F02120782E52475F00A84FD97
:100227007F03120782E52475F00A84ADF07F04127C
:100237000782E52675F00A84FD7F05120782E52609
:0E02470075F00A84ADF07F0612078202019A5C
:1005E2000526E526C394644019E4F5260524E5248E
:1005F200943C400EE4F5240525E525943C4003E4B3
:03060200F52522B9
:03000B0002025599
:10025500C0E0C0F0C083C082C0D075D000C000C06F
:0D02650001C002C003C004C005C006C007F0
:10027200758CFC758A17051DE51D7002051C051F8E
:10028200E51F7002051E0521E52170020520C3E568
:100292001D9414E51C94004009751C00751D001284
:1002A20004E5C3E51F9402E51E94004009751E0093
:1002B200751F001206A3C3E521940AE520940040AD
:0F02C2000E752000752100E527B401031205E237
:1002D100D007D006D005D004D003D002D001D00081
:0B02E100D0D0D082D083D0F0D0E0322B
:100628008F488D491207797FA01205B912074FAF7D
:10063800481205B912074FAF491205B912074F0200
:020648000003AD
:020589008F4899
:10058B001207797FA01205B912074FAF481205B9B0
:10059B0012074F1207797FA11205B912074F1206E6
:0D05AB004A8F497F0112075B120003AF4920
:0105B8002220
:10071700EF1FAC0670011E4C600A7D027CEFDCFE09
:04072700DDFC80EC89
:01072B0022AB
:09077900D2A0D2A1C2A0C2A122AB
:07000300C2A0D2A1D2A0228D
:0205B900AD078C
:1005BB00E4FB74807E00A803088006CEA2E713CE6E
:1005CB0013D8F8FFEDF582EF558224FF92A0D2A14C
:0605DB00C2A10BBB08DC0D
:0105E10022F7
:10064A00E4FFD2A0FED2A130A00D7480A8060880D3
:0D065A0002C313D8FC4207C2A10EBE08E87F
:010667002270
:0A075B00EF24FF92A0D2A1C2A12258
:0B074F00D2A0D2A1A2A0E433FFC2A1FF
:01075A00227C
:06074000C2A58F80D2A7C4
:080746007F027EEFDEFEDFFC06
:01074E002288
:0A076500C2A6120740C2A702074611
:10066800CFCDCFCECCCE12032B7C007D0A12032B2C
:04067800ED2430FF3E
:0A067C00D2A6120740C2A7020746EB
:1006EB00AE07BE0104ED148006BE0209ED243F44A3
:0606FB0080FF12076522DA
:10072C007F381207657F0C1207657F061207657FFD
:04073C00010207654A
:0A076F00AC031206EBAF0402067C97
:060605008B428A43894488
:10060B001206EBE4FDAB42AA43A9448D827583002D
:0C061B001202ECFF600612067C0D80E964
:0106270022B0
:0C0556007F0AEA24FFFDE434FFFC7E0075
:080562008E3E8F3F8C408D415D
:10056A007F017E00E4FBEBC39541E5406480F874AB
:0E057A008098500AAC3EAD3F1203190B80E88A
:010588002250
:040686008A318B32F8
:10068A001206EBAA33EAD39400400D120556AC3198
:08069A00AD321206681A80ED72
:0106A2002235
:100472001206EBC3EA64809480400B7F2B12067C49
:100482008A2D8B2E800E7F2D12067CC3E49BF52EC7
:10049200E49AF52DAA2CEAD39400400D120556AC2D
:0904A2002DAD2E1206681A80ED42
:0104AB00222E
:0404AC008A368B37CA
:1004B0001206EBAA38EAD3940040297F101205589F
:1004C000AC36AD37CFCDCFCECCCE12032BEF540F01
:1004D000FEC3940AEE5004243080022437FF120633
:0404E0007C1A80D131
:0104E40022F5
:04051E008A3B8B3C4D
:100522001206EBAA3DEAD394004028EA24FFFDE438
:1005320034FFFC7F027E00120562AC3BAD3CCFCDA6
:10054200CFCECCCE12032BEF54012430FF12067C07
:030552001A80D23A
:010555002283
:10000E00E4F54A7590FFC2932097137F14FE1207F2
:10001E00173097FD7F147E00120717754A01209640
:10002E00147F147E001207173096FD7F147E001287
:10003E000717754A052095147F147E001207173096
:10004E0095FD7F147E00120717754A092094147FC0
:10005E00147E001207173094FD7F147E00120717CE
:10006E00754A0D7590FFC2922097147F147E001270
:10007E0007173097FD7F147E00120717754A02206E
:10008E0096147F147E001207173096FD7F147E00A3
:10009E00120717754A062095147F147E0012071753
:1000AE003095FD7F147E00120717754A0A209414AE
:1000BE007F147E001207173094FD7F147E00120706
:1000CE0017754A0E7590FFC2912097147F147E000B
:1000DE001207173097FD7F147E00120717754A031B
:1000EE002096147F147E001207173096FD7F147E23
:1000FE0000120717754A072095147F147E00120709
:10010E00173095FD7F147E00120717754A0B209449
:10011E00147F147E001207173094FD7F147E001298
:10012E000717754A0F7590FFC2902097147F147EA3
:10013E00001207173097FD7F147E00120717754ABD
:10014E00042096147F147E001207173096FD7F143C
:10015E007E00120717754A082095147F147E001230
:10016E0007173095FD7F147E00120717754A0C2075
:10017E0094147F147E001207173094FD7F147E00B6
:08018E00120717754A10AF4A71
:010196002246
:1006BC000A123F065B4F666D7D077F6F090920208C
:0706CC002020202020202047
:10040C00E4F580EF14B40800505490042475F00304
:10041C00A4C58325F0C5837302043C020440020486
:10042C004402044802044C02045402045C020464B6
:10043C00D2A4800ED2A48012D2A48016D2A4801A88
:10044C00C2A4D2A3D2A28016C2A4D2A3C2A2800EEE
:10045C00C2A4C2A3D2A28006C2A4C2A3C2A2741216
:06046C002DF8E6F58022E8
:1006A30074092508F8E6FDAF0812040C0508E508EF
:0806B300D3940840037508010F
:0106BB00221C
:0707820074092FF8A60522FF
:1006D4005389F0438901C28DD28C758CFC758A18BC
:0706E400D2A9D2AFC2B92276
:10070100E4FF20B1010F20B0027F0220B2027F037B
:0507110020B3027F048B
:0107160022C0
:1004E5008545461207018F45E546B40107E5457088
:1004F50003754701E546B40207E5457003754702F4
:10050500E546B40307E5457003754703E546B404BE
:0805150007E54570037547047A
:01051D0022BB
:05078900E4AF47F54755
:01078E002248
:10038C00020197E493A3F8E493A34003F68001F2EF
:10039C0008DFF48029E493A3F85407240CC8C33372
:1003AC00C4540F4420C8834004F456800146F6DF41
:1003BC00E4800B01020408102040809006BCE47E0F
:1003CC00019360BCA3FF543F30E509541FFEE49336
:1003DC00A360010ECF54C025E060A840B8E493A3FD
:1003EC00FAE493A3F8E493A3C8C582C8CAC583CA28
:1003FC00F0A3C8C582C8CAC583CADFE9DEE780BEE0
:0106D3000026
:1002EC00BB010CE58229F582E5833AF583E02250C7
:1002FC0006E92582F8E622BBFE06E92582F8E22211
:0D030C00E58229F582E5833AF583E493222A
:10031900EF8DF0A4A8F0CF8CF0A428CE8DF0A42EF8
:02032900FE22B2
:10032B00BC000BBE0029EF8DF084FFADF022E4CCB6
:10033B00F875F008EF2FFFEE33FEEC33FCEE9DEC7F
:10034B00984005FCEE9DFE0FD5F0E9E4CEFD22EDC5
:10035B00F8F5F0EE8420D21CFEADF075F008EF2F0F
:10036B00FFED33FD4007985006D5F0F222C398FD00
:05037B000FD5F0EA229D
:00000001FF
