:030000000204FDFA
:0C04FD00787FE4F6D8FD75812E020544DE
:03000800202000B5
:03000B000206C228
:0906C200C0E0C0D075D000C007F3
:1006CB00758CFC758A180520E5207002051FC394F4
:1006DB00F4E51F94014012751F00752000E5217091
:0906EB00047F0180027F008F21D1
:0706F400D007D0D0D0E032A6
:10058900120470E518FB7A00750C027D017F0112D7
:100599000815E519FB7A00750C027D047F01120824
:1005A90015E51AFB7A00750C027D077F0112081503
:1005B900E51BFB7A00750C027D017F02120815E527
:1005C9001CFB7A00750C027D047F02120815E51DDB
:0D05D900FB7A00750C027D077F02020815F9
:10000E00E523B4020B0524E52475F0068485F0245F
:10001E00E5236403704274182524F806E518D3947A
:10002E00634003E4F518E519D3940C4003751901E8
:10003E00E51AD3941F4003751A01E51BC3941840AB
:10004E0003E4F51BE51CC3943C4003E4F51CE51DDD
:10005E00C3943C4003E4F51DE52364047042741818
:10006E002524F816E518C394005003751863E51996
:10007E00D39400500375190CE51AD39400500375F0
:10008E001A1FE51BC394005003751B17E51CC39480
:10009E00005003751C3BE51DC394005003751D3BBA
:1000AE00E5247014E521B4010F7BFF7A0079087DF9
:1000BE00017F011207D4800FE518FB7A00750C0240
:1000CE007D017F01120815E524B40114E521B40168
:1000DE000F7BFF7A0079087D047F011207D4800F11
:1000EE00E519FB7A00750C027D047F01120815E5F7
:1000FE0024B40214E521B4010F7BFF7A0079087D48
:10010E00077F011207D4800FE51AFB7A00750C02E7
:10011E007D077F01120815E524B40314E521B4010F
:10012E000F7BFF7A0079087D017F021207D4800FC2
:10013E00E51BFB7A00750C027D017F02120815E5A6
:10014E0024B40414E521B4010F7BFF7A0079087DF5
:10015E00047F021207D4800FE51CFB7A00750C0297
:10016E007D047F02120815E524B40512E521B401C1
:10017E000D7BFF7A0079087D077F020207D4E51D0B
:0E018E00FB7A00750C027D077F021208152215
:10076C0012087412083212000312019C8F23E52325
:10077C00B40114E5227005752201800BE522B40149
:10078C0006120325E4F522E522700512058980D9AD
:05079C0012000E80D4E4
:06088800C2A58F80D2A77B
:08088E007F027EEFDEFEDFFCBD
:01089600223F
:0A089700C2A6120888C2A702088E4C
:1007F700CFCDCFCECCCE12041B7C007D0A12041BBA
:04080700ED2430FFAD
:0A080B00D2A6120888C2A702088EC8
:10084900AE07BE0104ED148006BE0209ED243F4443
:0608590080FF1208972247
:100874007F381208977F0C1208977F061208977F1B
:0408840001020897CE
:0A08A100AC03120849AF0402080B73
:0607D4008B088A09890A66
:1007DA00120849E4FDAB08AA09A90A8D82758300AB
:0C07EA001203DCFF600612080B0D80E912
:0107F60022E0
:0C07A1007F0AEA24FFFDE434FFFC7E0028
:0807AD008E0D8F0E8C0F8D10D4
:1007B5007F017E00E4FBEBC39510E50F6480F874C0
:0E07C5008098500AAC0DAD0E1204090B80E8AE
:0107D3002203
:040815008A0A8B0BB5
:10081900120849AA0CEAD39400400D1207A1AC0AA8
:08082900AD0B1207F71A80ED78
:0108310022A4
:10068800120849C3EA64809480400B7F2B12080B40
:100698008A168B17800E7F2D12080BC3E49BF51763
:1006A800E49AF516AA15EAD39400400D1207A1ACF6
:0906B80016AD171207F71A80EDC8
:0106C1002216
:0406FB008A278B2897
:1006FF00120849AA29EAD3940040297F101207A3B0
:10070F00AC27AD28CFCDCFCECCCE12041BEF540FDC
:10071F00FEC3940AEE5004243080022437FF1208DF
:04072F000B1A80D150
:0107330022A3
:040734008A2C8B2D53
:10073800120849AA2EEAD394004028EA24FFFDE4CF
:1007480034FFFC7F027E001207ADAC2CAD2DCFCD5F
:10075800CFCECCCE12041BEF54012430FF12080B6D
:030768001A80D222
:01076B00226B
:0908AB0007181707110E070101DF
:0305E60025F0FD00
:0205E900A90760
:1005EB00D2B5E4FB74017E00A803088005C333CEAB
:1005FB0033CED8F9FFE9F582EF558224FF92B4D2BE
:10060B00B6C2B60BBB08DDE4FB74017E00A8030881
:10061B008005C333CE33CED8F9FFEDF582EF55828B
:0E062B0024FF92B4D2B6C2B60BBB08DDC2B536
:01063900229E
:02063A00AD070A
:10063C00E4F9430501D2B5FB74017E00A8030880E0
:10064C0005C333CE33CED8F9FFEDF582EF558224B6
:10065C00FF92B4C2B6D2B60BBB08DDE4FBD2B6C275
:10066C00B630B40D7401A803088002C333D8FC4221
:0B067C00010BBB08E8C2B5C2B4AF011F
:010687002250
:05000300C2B5C2B622E7
:10032500E4FD7F8E1205E9E51875F00A84C454F0E2
:10033500FFE51875F00A84EF7F8C1205E6E519755F
:10034500F00A84C454F0FFE51975F00A84EF7F883C
:100355001205E6E51A75F00A84C454F0FFE51A752E
:10036500F00A84EF25F0FD7F861205E9E51B75F09F
:100375000A84C454F0FFE51B75F00A84EF25F0FDEF
:100385007F841205E9E51C75F00A84C454F0FFE585
:100395001C75F00A84EF25F0FD7F821205E9E51D45
:1003A50075F00A84C454F0FFE51D75F00A84EF2545
:1003B500F0FD7F801205E9E51E75F00A84C454F04E
:1003C500FFE51E75F00A84EF25F0FD7F8A1205E929
:0703D5007D807F8E0205E927
:100470007F8C12063AEFC4540F75F00AA4FEEF54B5
:100480000F2EF5187F8812063AEFC4540F75F00A44
:10049000A4FEEF540F2EF5197F8612063AEFC454CE
:1004A0000F75F00AA4FEEF540F2EF51A7F84120682
:1004B0003AEFC4540F75F00AA4FEEF540F2EF51B4B
:1004C0007F8212063AEFC4540F75F00AA4FEEF546F
:1004D0000F2EF51C7F8012063AEFC4540F75F00AF8
:1004E000A4FEEF540F2EF51D7F8A12063AEFC45476
:0C04F0000F75F00AA4FEEF540F2EF51E4D
:0104FC0022DD
:10085F00EF1FAC0670011E4C600A7D027CEFDCFEC0
:04086F00DDFC80EC40
:010873002262
:100832005389F0438901C28DD28C758CFC758A185C
:07084200D2A9D2AFC2B92216
:10019C00E4F5087590FFC2932097137F14FE1208A4
:1001AC005F3097FD7F147E0012085F750801209662
:1001BC00147F147E0012085F3096FD7F147E0012AF
:1001CC00085F7508052095147F147E0012085F30B7
:1001DC0095FD7F147E0012085F7508092094147F2A
:1001EC00147E0012085F3094FD7F147E0012085FAD
:1001FC0075080D7590FFC2922097147F147E001223
:10020C00085F3097FD7F147E0012085F750802208E
:10021C0096147F147E0012085F3096FD7F147E00CA
:10022C0012085F7508062095147F147E0012085F73
:10023C003095FD7F147E0012085F75080A20941417
:10024C007F147E0012085F3094FD7F147E0012082C
:10025C005F75080E7590FFC2912097147F147E0075
:10026C0012085F3097FD7F147E0012085F7508033B
:10027C002096147F147E0012085F3096FD7F147E4A
:10028C000012085F7508072095147F147E00120871
:10029C005F3095FD7F147E0012085F75080B20946B
:1002AC00147F147E0012085F3094FD7F147E0012C0
:1002BC00085F75080F7590FFC2902097147F147E0D
:1002CC000012085F3097FD7F147E0012085F7508DE
:1002DC00042096147F147E0012085F3096FD7F1464
:1002EC007E0012085F7508082095147F147E00129A
:1002FC00085F3095FD7F147E0012085F75080C2096
:10030C0094147F147E0012085F3094FD7F147E00DD
:08031C0012085F750810AF081C
:0103240022B6
:1005090002076CE493A3F8E493A34003F68001F295
:1005190008DFF48029E493A3F85407240CC8C333F3
:10052900C4540F4420C8834004F456800146F6DFC2
:10053900E4800B01020408102040809008ABE47E9F
:10054900019360BCA3FF543F30E509541FFEE493B7
:10055900A360010ECF54C025E060A840B8E493A37E
:10056900FAE493A3F8E493A3C8C582C8CAC583CAA9
:10057900F0A3C8C582C8CAC583CADFE9DEE780BE61
:0108B4000043
:1003DC00BB010CE58229F582E5833AF583E02250D6
:1003EC0006E92582F8E622BBFE06E92582F8E22220
:0D03FC00E58229F582E5833AF583E493223A
:10040900EF8DF0A4A8F0CF8CF0A428CE8DF0A42E07
:02041900FE22C1
:10041B00BC000BBE0029EF8DF084FFADF022E4CCC5
:10042B00F875F008EF2FFFEE33FEEC33FCEE9DEC8E
:10043B00984005FCEE9DFE0FD5F0E9E4CEFD22EDD4
:10044B00F8F5F0EE8420D21CFEADF075F008EF2F1E
:10045B00FFED33FD4007985006D5F0F222C398FD0F
:05046B000FD5F0EA22AC
:00000001FF
