:03000000020003F8
:0C000300787FE4F6D8FD75812202004AE7
:10011C001808F292929E0080403E408000F292922B
:0A012C009E00F292929E0000000077
:10008F00E4F521F52212014CE4F520E52025212489
:10009F0008F8E6FDAF201200F80520E520C394080C
:1000AF0040E90522E522C3940A40DDE4F52205214B
:0C00BF00E521D3941040D1E4F52180CC61
:10013700EF1FAC0670011E4C600A7D027CEFDCFEEF
:04014700DDFC80EC6F
:01014B002291
:0200CB00AD077F
:1000CD00E4FB74807E00A803088006CEA2E713CE61
:1000DD0013D8F8FFEDF582EF558224FF92B4D2B616
:0A00ED00C2B60BBB08DCD2B5C2B5E9
:0100F70022E6
:05014C00C2B6C2B5229D
:1000F800AE05AC07AF061200CBAF047480A80708A2
:100108008002C313D8FCF4F5807F017E001201370A
:040118007580FF22CD
:10000F0002008FE493A3F8E493A34003F68001F278
:10001F0008DFF48029E493A3F85407240CC8C333F2
:10002F00C4540F4420C8834004F456800146F6DFC1
:10003F00E4800B010204081020408090011CE47E34
:10004F00019360BCA3FF543F30E509541FFEE493B6
:10005F00A360010ECF54C025E060A840B8E493A37D
:10006F00FAE493A3F8E493A3C8C582C8CAC583CAA8
:10007F00F0A3C8C582C8CAC583CADFE9DEE780BE60
:0101360000C8
:00000001FF
