:0300000002000EED
:0C000E00787FE4F6D8FD75817F02005574
:10009A00204838F889F8F4F959F9B9FA13FA68FADC
:1000AA00B9FB04FB4CFB90FBCFFC0CFC44FC7AFC38
:1000BA00ADFCDCFD0AFD34FD5CFD82FDA6FDC8FD3C
:1000CA00E8FE06FE22FE3DFE56FE6EFE85FE9AFE06
:1000DA00AEFEC1FED3FEE4FEF4FF03202C08001797
:1000EA0000030017000300150002001700030017A1
:1000FA000003001500020017000300170003001593
:0A010A0000020017000400170004B3
:03000B0002015798
:10015700C0E0C0D075D000C000C004C005C007E52E
:100167003525E02438F8E6FC08E6FDECF58CAF050C
:100177008F8AB2A5D007D005D004D000D0D0D0E068
:010187003245
:100115001201A8E53725E02408F8E6F53408E6F5E8
:10012500350537E5377002053625E02408F8E6FE83
:1001350008E6FF7C007D961201D41201BF0537E564
:100145003770020536C28C7F057E001201BFD28C46
:0201550080C167
:1001BF00EF1FAC0670011E4C600A7D027CEFDCFE67
:0401CF00DDFC80ECE7
:0101D3002209
:1001A8005389F0438901C28DD28C758CFC758A18ED
:0701B800D2A9D2AFC2B922A7
:05000300007FE3DFFEB9
:0100080022D5
:02018800A907C5
:10018A00E4FDFCE975F002A4FFC3ED9FEC95F05085
:0D019A000CB2A51200030DBD00010C80E6A3
:0101A7002235
:10001A00020115E493A3F8E493A34003F68001F2E6
:10002A0008DFF48029E493A3F85407240CC8C333E7
:10003A00C4540F4420C8834004F456800146F6DFB6
:10004A00E4800B010204081020408090009AE47EAC
:10005A00019360BCA3FF543F30E509541FFEE493AB
:10006A00A360010ECF54C025E060A840B8E493A372
:10007A00FAE493A3F8E493A3C8C582C8CAC583CA9D
:10008A00F0A3C8C582C8CAC583CADFE9DEE780BE55
:0101140000EA
:1001D400EF8DF0A4A8F0CF8CF0A428CE8DF0A42E3F
:0201E400FE22F9
:00000001FF
