:0300000002023BBE
:0C023B00787FE4F6D8FD75810D0201EA21
:03000B0002019758
:0B019700C0E0C0D075D000C000C00761
:1001A200758CFC758A170509E50970020508C39468
:1001B200F4E50894014028750800750900E50B452F
:1001C2000A700FAFA07801EF08800123D8FDF5A0D7
:0F01D200800DAFA07801EF08800103D8FDF5A0E4
:0901E100D007D000D0D0D0E032EC
:1001EA0012020F75A0FE12000E8F0CE50C60F7B418
:1001FA0001F4E50B450A70047F0180027F00750A4D
:05020A00008F0B80E1F4
:10020F005389F0438901C28DD28C758CFC758A1885
:07021F00D2A9D2AFC2B9223F
:10000E00E4F50D7590FFC2932097137F14FE120234
:10001E00263097FD7F147E00120226750D01209664
:10002E00147F147E001202263096FD7F147E00127D
:10003E000226750D052095147F147E0012022630BF
:10004E0095FD7F147E00120226750D092094147FF3
:10005E00147E001202263094FD7F147E00120226BA
:10006E00750D0D7590FFC2922097147F147E0012AD
:10007E0002263097FD7F147E00120226750D022097
:10008E0096147F147E001202263096FD7F147E0099
:10009E00120226750D062095147F147E001202267C
:1000AE003095FD7F147E00120226750D0A209414E1
:1000BE007F147E001202263094FD7F147E00120201
:1000CE0026750D0E7590FFC2912097147F147E0039
:1000DE001202263097FD7F147E00120226750D0344
:1000EE002096147F147E001202263096FD7F147E19
:1000FE0000120226750D072095147F147E00120241
:10010E00263095FD7F147E00120226750D0B20946D
:10011E00147F147E001202263094FD7F147E00128E
:10012E000226750D0F7590FFC2902097147F147ED6
:10013E00001202263097FD7F147E00120226750DE6
:10014E00042096147F147E001202263096FD7F1432
:10015E007E00120226750D082095147F147E001263
:10016E0002263095FD7F147E00120226750D0C209E
:10017E0094147F147E001202263094FD7F147E00AC
:08018E00120226750D10AF0DE1
:010196002246
:10022600EF1FAC0670011E4C600A7D027CEFDCFEFF
:04023600DDFC80EC7F
:01023A0022A1
:00000001FF
